:100000000C9446000C9465000C9465000C946500FB
:100010000C9465000C9465000C9401070C94C306C5
:100020000C9465000C9465000C9474060C946500A7
:100030000C9465000C9465000C9465000C946500AC
:100040000C9465000C9465000C9465000C9465009C
:100050000C9465000C9465000C9465000C9465008C
:100060000C9465000C9465000C9465000C9465007C
:100070000C9465000C9465000C9460070C9465006A
:100080000C9465000C9465000C94650011241FBE4F
:10009000CFEFD0E1DEBFCDBF12E0A0E0B1E0EEE4F3
:1000A000FAE100E00BBF02C007900D92A833B10740
:1000B000D9F712E0A8E3B2E001C01D92A234B10763
:1000C000E1F70E943F090C94250D0C940000A8E173
:1000D000B0E0EDE6F0E00C94C10969837A838B838C
:1000E0009C832D833E834F835887B9E0EB2EF12C00
:1000F000EC0EFD1ECE010196B7010E9404038E0195
:100100000F5E1F4FCE010596B8010E94040329859A
:10011000223008F47EC03989323010F4B8017CC036
:100120008A859A8989278A87243011F0223031F410
:10013000231709F06EC060E271E06EC0343039F40C
:100140001D861E861F86188A1C861B8604C03230B8
:1001500021F484E08987B7015FC02B853C858B89BA
:100160009C89281B390B3C872B87ED84FE840F85E7
:100170001889AD88BE88CF88D88CEA14FB040C059A
:100180001D0540F4EE0CFF1C001F111F21503040D4
:100190003C872B8720E030E040E050E080E090E0BA
:1001A000A0E0B0E460E070E0EA14FB040C051D057B
:1001B00040F0282B392B4A2B5B2BEA18FB080C0943
:1001C0001D09B695A79597958795EE0CFF1C001F06
:1001D000111F6F5F7F4F6F31710531F7DA01C90170
:1001E0008F779070A070B07080349105A105B10533
:1001F00061F427FD0AC0E114F1040105110529F09D
:10020000205C3F4F4F4F5F4F20782D873E874F87B1
:10021000588BBE01675F7F4FCB010E942F0268960B
:10022000EAE00C94DD09ACE0B0E0E9E1F1E00C9427
:10023000C90969837A838B839C83CE010196BE01B1
:100240006B5F7F4F0E9404038D81823061F18230A9
:1002500050F1843021F48E81882351F12EC02F81FA
:10026000388537FD20C06E812F3131051CF06623A3
:10027000F9F023C08EE190E0821B930B29853A852B
:100280004B855C8504C056954795379527958A958B
:10029000D2F76623B1F050954095309521953F4FA8
:1002A0004F4F5F4F0EC020E030E040E050E009C00B
:1002B0002FEF3FEF4FEF5FE704C020E030E040E07A
:1002C00050E8B901CA012C96E2E00C94E509A8E0D7
:1002D000B0E0EDE6F1E00C94C1097B018C01611501
:1002E00071058105910519F482E0898360C083E07E
:1002F00089838EE1C82ED12CDC82CB82ED82FE82F6
:100300000F831887C801B7010E94E001FC013197F3
:10031000F7FF3BC0222733272E1B3F0B57016801F5
:10032000022E04C0D694C794B794A7940A94D2F727
:1003300040E050E060E070E081E090E0A0E0B0E0FC
:1003400004C0880F991FAA1FBB1F2A95D2F70197D7
:10035000A109B1098E219F21A023B1230097A105F6
:10036000B10521F041E050E060E070E04A295B29EE
:100370006C297D294D835E836F8378878EE190E0C1
:100380008E1B9F0B9C838B8312C0309781F00E2EA7
:1003900004C0EE0CFF1C001F111F0A94D2F7ED825F
:1003A000FE820F831887CE1ADF0ADC82CB821A8284
:1003B000CE0101960E942F022896EAE00C94DD09F6
:1003C000EF92FF920F931F937B018C0180E0E81660
:1003D00080E0F80681E0080780E0180788F48FEFD6
:1003E000E816F1040105110531F028F088E090E0ED
:1003F000A0E0B0E017C080E090E0A0E0B0E012C064
:1004000080E0E81680E0F80680E0080781E0180741
:1004100028F088E190E0A0E0B0E004C080E190E046
:10042000A0E0B0E020E230E040E050E0281B390BD3
:100430004A0B5B0B04C016950795F794E7948A95D1
:10044000D2F7F701E85DFE4F8081281B3109410991
:100450005109C9011F910F91FF90EF900895DF920C
:10046000EF92FF920F931F93FC01E480F5800681C9
:100470001781D1808081823048F480E090E0A0E153
:10048000B0E0E82AF92A0A2B1B2BA5C0843009F416
:100490009FC0823021F4EE24FF24870105C0E114BF
:1004A000F1040105110519F4E0E0F0E096C0628165
:1004B00073819FEF623879070CF05BC022E83FEF51
:1004C000261B370B2A3131052CF020E030E040E0CC
:1004D00050E02AC0B801A701022E04C076956795A6
:1004E000579547950A94D2F781E090E0A0E0B0E0FC
:1004F00004C0880F991FAA1FBB1F2A95D2F7019726
:10050000A109B1098E219F21A023B1230097A10544
:10051000B10521F081E090E0A0E0B0E09A01AB01EC
:10052000282B392B4A2B5B2BDA01C9018F7790706E
:10053000A070B07080349105A105B10539F427FF92
:1005400009C0205C3F4F4F4F5F4F04C0215C3F4FBD
:100550004F4F5F4FE0E0F0E02030A0E03A07A0E02E
:100560004A07A0E45A0710F0E1E0F0E079018A01BF
:1005700027C06038710564F5FB01E158FF4FD801D1
:10058000C7018F779070A070B07080349105A1057D
:10059000B10539F4E7FE0DC080E490E0A0E0B0E0E2
:1005A00004C08FE390E0A0E0B0E0E80EF91E0A1F5F
:1005B0001B1F17FF05C016950795F794E794319612
:1005C00087E016950795F794E7948A95D1F705C0CB
:1005D000EE24FF248701EFEFF0E06E2F679566278A
:1005E0006795902F9F77D794DD24D7948E2F86958B
:1005F000492F462B582F5D29B701CA011F910F9132
:10060000FF90EF90DF900895FC01DB014081518164
:100610002281622F6F7770E0221F2227221F938191
:10062000892F880F822B282F30E0991F9927991F37
:1006300011969C93119721153105A9F54115510586
:100640006105710511F482E037C082E89FEF1396CF
:100650009C938E9312979A01AB0167E0220F331F90
:10066000441F551F6A95D1F783E08C930DC0220F6C
:10067000331F441F551F12968D919C91139701971C
:1006800013969C938E931297203080E0380780E079
:10069000480780E4580758F314962D933D934D93E3
:1006A0005C93179708952F3F310579F44115510553
:1006B0006105710519F484E08C93089564FF03C00B
:1006C00081E08C9312C01C9210C02F5730401396BB
:1006D0003C932E93129783E08C9387E0440F551F31
:1006E000661F771F8A95D1F7706414964D935D93BA
:1006F0006D937C9317970895889889980895882317
:1007000021F08898809BFECF0895889A909808954C
:10071000882311F089980895899A9198089581E025
:100720000E947F0382E08A95F1F781E00E948803AE
:1007300081E008951F9380E00E94880315E0812FD7
:100740008A95F1F780E00E947F031A95F1F781E026
:100750001F910895889A899A81E00E94880381E018
:100760000E947F030895809B03C0889A9098089503
:100770008898809BFECF0895DF92EF92FF920F93AF
:100780001F93CF93DF93D82E899800E0C7E0D0E085
:1007900081E0E82EF12C15E00E94B303819B08C094
:1007A000C7010C2E02C0880F991F0A94E2F7082B8C
:1007B000812F8A95F1F70E94B303812F8A95F1F773
:1007C00021978FEFCF3FD80739F7899A80E0DD2056
:1007D00009F481E00E9488030E94B30315E0812F91
:1007E0008A95F1F70E94B30381E00E9488031A956D
:1007F000F1F7802FDF91CF911F910F91FF90EF9034
:10080000DF9008959F92AF92BF92CF92DF92EF92C6
:10081000FF920F931F93CF93DF938C01962EA42EFC
:100820008998FF24C7E0D0E031E0C32ED12C25E029
:10083000B22E0E94B303819B08C0C6010C2E02C0D9
:10084000880F991F0A94E2F7F82A95E0E92E8B2D7C
:100850008A95F1F70E94B3038B2D8A95F1F72197C2
:100860008FEFCF3FD80729F72A2D30E0020F131F53
:10087000F801F082899A892D90E0019728173907AD
:1008800074F480E00E9488030E94B3038E2D8A9541
:10089000F1F70E94B30381E00E9488030AC081E05F
:1008A0000E9488030E94B3038E2D8A95F1F70E945F
:1008B000B3038E2D8A95F1F781E0DF91CF911F91DF
:1008C0000F91FF90EF90DF90CF90BF90AF909F90EF
:1008D0000895EF92FF920F931F93082F10E055E0B9
:1008E000F52E802F881F8827881F0E9488030E946A
:1008F000B30345E0E42E8F2D8A95F1F70E94B303F0
:10090000000F8F2D8A95F1F71F5F183051F78998E6
:100910000E94B303819B02C080E00AC08E2D8A959D
:10092000F1F70E94B303899A8E2D8A95F1F781E041
:100930001F910F91FF90EF900895806A0E946904C3
:100940000895FF920F931F93CF93DF93EC01F62E40
:100950000E949A038823E9F081E00E949D04882385
:10096000C1F010E000E009C0CE016F2D412F0E94C0
:100970000204082F882319F01F5F1F15A8F381E0D8
:100980000E947F0382E08A95F1F781E00E9488034C
:1009900001C000E0802FDF91CF911F910F91FF9058
:1009A0000895FF920F931F93CF93DF93182F092F72
:1009B000F62E0E949A038823F9F080E00E949D049D
:1009C0008823D1F0812F902F9C01E90100E010E0F5
:1009D00007C089910E946904082F882319F01F5FBE
:1009E0001F15B8F381E00E947F0382E08A95F1F73A
:1009F00081E00E94880301C000E0802FDF91CF9149
:100A00001F910F91FF900895662311F0A89A01C0DD
:100A1000A898A998A49AA59AA69AA79AAF98AE98CA
:100A2000AD98AC9887FDAF9A86FDAE9A85FDAD9ADC
:100A300084FDAC9AAA9A00C0AA98AF98AE98AD98D7
:100A4000AC9883FDAF9A82FDAE9A81FDAD9A80FD90
:100A5000AC9AAA9A00C0AA98AC9AAD9AAE9AAF9AEC
:100A60000895882311F0A89A01C0A898A99AA4987B
:100A7000A598A698A798AA9A00C09C9B02C080E15E
:100A800001C080E09D9980629E9980649F998068F2
:100A9000AA9800C0AA9A00C09C9981609D99826022
:100AA0009E9984609F998860AA98089580E00E942A
:100AB000310587FDFBCF84E090E00197F1F780E0FE
:100AC0000E94310508951F93182F0E945605812F0B
:100AD00060E00E9404051F9108951F93182F0E9443
:100AE0005605812F61E00E9404051F910895662339
:100AF00011F4805801C080540E94630508950E943B
:100B0000560590E0089581E00E946305089582E013
:100B10000E94630508951F93182F0E9456051A30EE
:100B200049F4803410F080E001C080E480580E94D5
:100B3000630504C0812F61E00E9404051F910895A0
:100B4000CF93DF93EC0102C00E948B05899188232B
:100B5000D9F7DF91CF910895CF93DF93EC0102C0D5
:100B60000E948B05FE01219684918823C9F7DF91AD
:100B7000CF9108951F93182FA09AA19AA29AA49A90
:100B8000A59AA69AA79A80E09DE70197F1F7AD9AFA
:100B9000AC9AAA9A00C0AA9880E097E20197F1F770
:100BA000AA9A00C0AA9880E890E0FC013197F1F77A
:100BB000AA9A00C0AA98FC013197F1F7AC98AA9ABA
:100BC00000C0AA980197F1F788E20E94630588E0C7
:100BD0000E9463050E94830586E00E946305812FC1
:100BE0000E9463051F910895909398008093990047
:100BF00088E980939A008EE080939D000895BC9AC6
:100C00001598169889B7806289BF89B7806489BFB3
:100C10008AB788608ABF8AB78B7F8ABF8AB78062AB
:100C20008ABF8AB78F7E8ABF8BB31BBA85B315BACA
:100C300082B312BA83B113B883B7886483BF83B712
:100C4000806283BF83B78F7E83BF83B78A7F83BF72
:100C500083B7826083BF89E181BF85B5877B85BD0E
:100C600085B58A7F85BD85B5826085BD8BE984BDEC
:100C700087B7806487BF809141028E7F8093410255
:100C8000809141028D7F80934102809141028B7F50
:100C90008093410280914102877F8093410280913D
:100CA00041028F7E80934102809141028F7D80932B
:100CB0004102809141028F7B8093410280914102E9
:100CC0008F77809341020895A0E0B0E0BC01CD0190
:100CD0000E9467012AE939E949E95FE30E94670058
:100CE0000E941301CB0108951F920F920FB60F922D
:100CF00011242F938F939F9380913A0290913B02FE
:100D0000019690933B0280933A0280913C0290912D
:100D10003D02019690933D0280933C0280913C02FB
:100D200090913D02883C910549F480914102826096
:100D30008093410210923D0210923C0280913A024F
:100D400090913B02885B9B4049F410923B021092C9
:100D50003A02809141028460809341028BE982BF14
:100D60009F918F912F910F900FBE0F901F9018950C
:100D700088E292E00E94F0098A509048880F991FFB
:100D8000875E81BF08951F920F920FB60F920BB628
:100D90000F9211242F933F934F935F936F937F9301
:100DA0008F939F93AF93BF93EF93FF9380913E02F6
:100DB0008130A1F488E292E00E94F0099C018B3519
:100DC000910528F4265F3F4F81B7875E81BFC90137
:100DD00068E272E04AE050E00E94150AFF91EF914C
:100DE000BF91AF919F918F917F916F915F914F9143
:100DF0003F912F910F900BBE0F900FBE0F901F9041
:100E000018951F920F920FB60F920BB60F921124E6
:100E10002F933F934F935F936F937F938F939F9302
:100E2000AF93BF93EF93FF9380913E028130A1F483
:100E300088E292E00E94F0099C018B30910528F035
:100E40002A50304081B7895181BFC90168E272E000
:100E50004AE050E00E94150AFF91EF91BF91AF91D7
:100E60009F918F917F916F915F914F913F912F91C2
:100E70000F900BBE0F900FBE0F901F90189500D0D3
:100E800000D000D0EDB7FEB7319688E292E0ADB762
:100E9000BEB712969C938E93119780E091E0938356
:100EA000828384E690E0958384830E943E0A8DB716
:100EB0009EB706960FB6F8949EBF0FBE8DBF0895DD
:100EC0001F920F920FB60F920BB60F9211242F9311
:100ED0003F934F935F936F937F938F939F93AF93C2
:100EE000BF93EF93FF9380919C0080933602809193
:100EF00036028234B9F0833420F4813409F053C0CF
:100F000006C08C34C1F0833509F04DC045C08091D6
:100F10003E02882321F481E080933E02BDC01092FE
:100F20003E02BAC080913E02813009F0B5C0809186
:100F300041028160AFC080913E02813009F0ACC0B7
:100F40008091410287FD14C083B7887F83BF809161
:100F500041028068809341028091410288608093C1
:100F6000410280914102806280934102B49894C012
:100F700083B78A7F83BF83B7826083BF809141023A
:100F80008F77809341028091410288608093410273
:100F90008091410280627EC080913F029091400228
:100FA00080939C0079C08091410280FF75C0809140
:100FB00038029091390202976CF5E0913802F09175
:100FC0003902EE5CFD4F80812091360200D000D0C6
:100FD00000D0EDB7FEB73196ADB7BEB711968C9382
:100FE000118283E091E093838283248315820E949F
:100FF0003E0A80913802909139020196909339020D
:10100000809338028DB79EB706960FB6F8949EBFB0
:101010000FBE8DBF80913802909139020297E1F5A1
:10102000E0913802F0913902EE5CFD4F8081209111
:10103000360200D000D000D0EDB7FEB73196ADB784
:10104000BEB711968C93118283E091E093838283E3
:10105000248315820E943E0A8DB79EB706960FB66E
:10106000F8949EBF0FBE8DBF82E392E00E94F0090C
:101070000B976CF082E392E00E94F00985369105AF
:1010800034F488E292E062E372E00E940E0A8091FA
:1010900041028E7F80934102FF91EF91BF91AF910A
:1010A0009F918F917F916F915F914F913F912F9180
:1010B0000F900BBE0F900FBE0F901F9018950F93BF
:1010C0001F930E94830580E060E00E94770586E020
:1010D00091E00E94A00580913E02882311F08DE4EA
:1010E00001C081E40E948B0588E060E00E947705E2
:1010F0008CE091E00E94A0058091410287FF03C02F
:1011000081E191E002C085E191E00E94A00580E0CC
:1011100061E00E94770588E191E00E94A00588E2E5
:1011200092E00E94A00588E061E00E9477058CE1D2
:1011300091E00E94A00580913F02909140020E94A0
:10114000640600D000D000D0EDB7FEB731960CE2B7
:1011500012E0ADB7BEB712961C930E93119720E024
:1011600031E033832283958384830E943E0A8DB7C6
:101170009EB706960FB6F8949EBF0FBE8DBFC801EE
:101180000E94A0051F910F9108958091410281FF57
:1011900007C00E945F08809141028D7F80934102C9
:1011A00008950E949A0386E40E94690480E10E94E7
:1011B00069040E948F0380EB94E028EC30E0F90191
:1011C0003197F1F70197D9F70895EF92FF920F93B6
:1011D0001F930E949A0387E40E94690481E00E94A1
:1011E000BC03F82EEE2480E00E94BC03082F0E946E
:1011F0008F0310E00E291F29C8011F910F91FF9046
:10120000EF9008958091410283FF14C080914102C4
:1012100084FF07C080914102809141028F7E8093BC
:101220004102809141028091410280914102877F79
:10123000809341028091410281FF07C00E945F08B4
:10124000809141028D7F809341028091410282FF13
:1012500015C00E94E5089093400280933F02809160
:101260003E02882331F480913F02909140020E9417
:101270003F07809141028B7F8093410208957894CB
:101280000E94FF050E94AA030E94D10810929800B4
:1012900083E38093990088E980939A008EE080939D
:1012A0009D008CE00E94BA050E94830580919A00FF
:1012B000877F80939A000E94020980913E028823D2
:1012C00049F489B78F7D89BF89B78F7B89BF0E9419
:1012D000B806F1CF89B7806289BF89B7806489BFBA
:1012E0000BC088E292E00E94F009019768E272E088
:1012F0004AE050E00E94150A88E292E00E94F0095C
:101300006AE070E00E949209892B59F788E292E026
:101310000E94F0090A97880F991F875E81BF0E947B
:10132000C508C9CF97FB092E07260AD077FD04D040
:101330000CD006D000201AF4709561957F4F089567
:10134000F6F7909581959F4F0895AA1BBB1B51E11D
:1013500007C0AA1FBB1FA617B70710F0A61BB70B25
:10136000881F991F5A95A9F780959095BC01CD01CA
:1013700008952F923F924F925F926F927F928F9239
:101380009F92AF92BF92CF92DF92EF92FF920F9314
:101390001F93CF93DF93CDB7DEB7CA1BDB0B0FB61E
:1013A000F894DEBF0FBECDBF09942A8839884888DB
:1013B0005F846E847D848C849B84AA84B984C88471
:1013C000DF80EE80FD800C811B81AA81B981CE0F68
:1013D000D11D0FB6F894DEBF0FBECDBFED0108954D
:1013E000FC0188279927E89421912032E9F32930DC
:1013F00010F02E30C8F32B3241F02D3239F46894BE
:1014000004C00E94360A820F911D219120532A3078
:10141000C0F31EF4909581959F4F0895FB01DC0168
:1014200001900D920020E1F70895FB019F01E894DF
:101430004230C4F04532B4F44A3029F497FB1EF42C
:10144000909581959F4F642F77270E94A509805D15
:101450008A330CF0895D8193CB010097A1F716F4D4
:101460005DE251931082C9010C948B0C7AE0979F36
:10147000902D879F802D910D112408950F931F9318
:10148000DF93CF93CDB7DEB72E970FB6F894DEBFBC
:101490000FBECDBF0D891E8986E08C831A83098318
:1014A0008FEF9FE79E838D839E01275E3F4FCE0186
:1014B00001966F89788DA9010E946F0A2F81388566
:1014C000020F131FF80110822E960FB6F894DEBF9C
:1014D0000FBECDBFCF91DF911F910F9108952F9235
:1014E0003F924F925F926F927F928F929F92AF92B4
:1014F000BF92CF92DF92EF92FF920F931F93DF93F1
:10150000CF93CDB7DEB72B970FB6F894DEBF0FBEE3
:10151000CDBF3C012B015A01FC0117821682838149
:1015200081FD03C06FEF7FEFC6C19AE0892E1E01D7
:101530000894211C311CF3012381F20123FD8591C4
:1015400023FF81912F01882309F4B2C1853239F438
:1015500023FD859123FF81912F01853229F490E0AD
:10156000B3010E949B0CE7CF982FFF24EE2499240F
:10157000FFE1FF15D0F09B3269F09C3228F49032E5
:1015800059F0933291F40EC09D3249F0903369F4D2
:1015900041E024C052E0F52A84E0F82A28C098E00F
:1015A000F92A25C0E0E1FE2A22C0F7FC29C0892FD4
:1015B00080538A3070F4F6FE05C0989C902C11245C
:1015C000980E15C0E89CE02C1124E80EF0E2FF2AEA
:1015D0000EC09E3229F4F6FC6BC140E4F42A07C029
:1015E0009C3619F450E8F52A02C0983649F4F20105
:1015F00023FD959123FF91912F01992309F0B8CFF5
:10160000892F8554833018F08052833038F444E0B9
:1016100050E0A40EB51E5FE359830FC0933631F03E
:10162000933779F0933509F056C020C0F5018081D9
:10163000898342E050E0A40EB51E610101E010E094
:1016400012C0F501C080D180F6FC03C06FEF7FEFC0
:1016500002C0692D70E042E050E0A40EB51EC60144
:101660000E94800C8C015FE7F52214C0F501C08058
:10167000D180F6FC03C06FEF7FEF02C0692D70E0F0
:1016800042E050E0A40EB51EC6010E94750C8C010C
:1016900050E8F52AF3FE07C01AC080E290E0B301DB
:1016A0000E949B0CEA948E2D90E008171907A8F36E
:1016B0000EC0F601F7FC8591F7FE81916F0190E075
:1016C000B3010E949B0CE110EA94015010400115F7
:1016D000110579F7EAC0943611F0993669F5F7FEED
:1016E00008C0F501208131814281538184E090E07E
:1016F0000AC0F501808191819C01442737FD409506
:10170000542F82E090E0A80EB91E9FE6F92257FF01
:1017100009C050954095309521953F4F4F4F5F4FF1
:10172000E0E8FE2ACA01B901A1012AE030E00E94E6
:10173000C70CD82ED21840C0953729F41F2D1F7E14
:101740002AE030E01DC01F2D197F9F3661F09037D1
:1017500020F4983509F0ACC00FC0903739F09837B5
:1017600009F0A6C004C028E030E00AC0106114FDF2
:10177000146020E130E004C014FD166020E132E086
:1017800017FF08C0F501608171818281938144E077
:1017900050E008C0F50180819181BC0180E090E0BB
:1017A00042E050E0A40EB51EA1010E94C70CD82E45
:1017B000D2188FE7F82EF122F6FE0BC05EEFF5226D
:1017C000D91438F4F4FE07C0F2FC05C08FEEF822FD
:1017D00002C01D2D01C0192DF4FE0DC0FE01ED0D3E
:1017E000F11D8081803319F499EEF92208C01F5F42
:1017F000F2FE05C003C08F2D867809F01F5F0F2D04
:10180000F3FC14C0F0FE0FC01E1510F09D2C0BC091
:101810009D2C9E0C911A1E2D06C080E290E0B30113
:101820000E949B0C1F5F1E15C0F304C01E1510F410
:10183000E11A01C0EE2404FF0FC080E390E0B30181
:101840000E949B0C02FF1DC001FD03C088E790E0D1
:101850000EC088E590E00BC0802F867891F001FFE4
:1018600002C08BE201C080E2F7FC8DE290E0B301A0
:101870000E949B0C06C080E390E0B3010E949B0C89
:101880009A94D914C0F3DA94F101ED0DF11D808121
:1018900090E0B3010E949B0CDD20A9F706C080E216
:1018A00090E0B3010E949B0CEA94EE20C1F743CE76
:1018B000F30166817781CB012B960FB6F894DEBFDA
:1018C0000FBECDBFCF91DF911F910F91FF90EF9091
:1018D000DF90CF90BF90AF909F908F907F906F9050
:1018E0005F904F903F902F900895FC0105906150BC
:1018F00070400110D8F7809590958E0F9F1F089526
:10190000FC016150704001900110D8F780959095CE
:101910008E0F9F1F0895DC01FC01672F71917723C3
:10192000E1F7329704C07C916D9370836291AE179A
:10193000BF07C8F308950F931F93CF93DF938C01D4
:10194000EB018B8181FF1BC082FF0DC02E813F8187
:101950008C819D812817390764F4E881F98101930E
:10196000F983E88306C0E885F985802F0995892BDE
:1019700031F48E819F8101969F838E8302C00FEF89
:101980001FEFC801DF91CF911F910F910895FA01C8
:10199000AA27283051F1203181F1E8946F936E7FAE
:1019A0006E5F7F4F8F4F9F4FAF4FB1E03ED0B4E09F
:1019B0003CD0670F781F891F9A1FA11D680F791FE0
:1019C0008A1F911DA11D6A0F711D811D911DA11DF1
:1019D00020D009F468943F912AE0269F1124301901
:1019E000305D3193DEF6CF010895462F4770405D9C
:1019F0004193B3E00FD0C9F7F6CF462F4F70405D4B
:101A00004A3318F0495D31FD4052419302D0A9F7A5
:101A1000EACFB4E0A6959795879577956795BA959F
:101A2000C9F700976105710508959B01AC010A2E65
:101A300006945795479537952795BA95C9F7620F3C
:0E1A4000731F841F951FA01D0895F894FFCFFB
:101A4E002569002563004D4F44453A004C45443A04
:101A5E00004F4646004F4E0042523A004C583A0054
:101A6E000000000000000000000102020303030357
:101A7E000404040404040404050505050505050510
:101A8E0005050505050505050606060606060606F0
:101A9E0006060606060606060606060606060606D8
:101AAE0006060606060606060707070707070707C0
:101ABE0007070707070707070707070707070707A8
:101ACE000707070707070707070707070707070798
:101ADE000707070707070707070707070707070788
:101AEE000707070707070707080808080808080870
:101AFE000808080808080808080808080808080858
:101B0E000808080808080808080808080808080847
:101B1E000808080808080808080808080808080837
:101B2E000808080808080808080808080808080827
:101B3E000808080808080808080808080808080817
:101B4E000808080808080808080808080808080807
:101B5E0008080808080808080808080808080808F7
:101B6E0008080808080808083031300030303030D6
:081B7E00310030303000480056
:00000001FF
