:100000000C9446000C9465000C9465000C946500FB
:100010000C9465000C9465000C9445070C94F6064E
:100020000C9465000C9465000C94B8080C94650061
:100030000C9465000C9465000C9465000C946500AC
:100040000C9465000C9465000C9465000C9465009C
:100050000C9465000C9465000C9465000C9465008C
:100060000C9465000C9465000C9465000C9465007C
:100070000C9465000C9465000C9476060C94650055
:100080000C9465000C9465000C94650011241FBE4F
:10009000CFEFD0E1DEBFCDBF12E0A0E0B1E0E2EDF6
:1000A000F3E100E00BBF02C007900D92A433B1074B
:1000B000D9F712E0A4E3B2E001C01D92AC33B1075E
:1000C000E1F70E941A090C94E7090C940000A8E1DA
:1000D000B0E0EDE6F0E00C94460969837A838B8307
:1000E0009C832D833E834F835887B9E0EB2EF12C00
:1000F000EC0EFD1ECE010196B7010E9404038E0195
:100100000F5E1F4FCE010596B8010E94040329859A
:10011000223008F47EC03989323010F4B8017CC036
:100120008A859A8989278A87243011F0223031F410
:10013000231709F06EC067E271E06EC0343039F405
:100140001D861E861F86188A1C861B8604C03230B8
:1001500021F484E08987B7015FC02B853C858B89BA
:100160009C89281B390B3C872B87ED84FE840F85E7
:100170001889AD88BE88CF88D88CEA14FB040C059A
:100180001D0540F4EE0CFF1C001F111F21503040D4
:100190003C872B8720E030E040E050E080E090E0BA
:1001A000A0E0B0E460E070E0EA14FB040C051D057B
:1001B00040F0282B392B4A2B5B2BEA18FB080C0943
:1001C0001D09B695A79597958795EE0CFF1C001F06
:1001D000111F6F5F7F4F6F31710531F7DA01C90170
:1001E0008F779070A070B07080349105A105B10533
:1001F00061F427FD0AC0E114F1040105110529F09D
:10020000205C3F4F4F4F5F4F20782D873E874F87B1
:10021000588BBE01675F7F4FCB010E942F0268960B
:10022000EAE00C946209ACE0B0E0E9E1F1E00C94A2
:100230004E0969837A838B839C83CE010196BE012C
:100240006B5F7F4F0E9404038D81823061F18230A9
:1002500050F1843021F48E81882351F12EC02F81FA
:10026000388537FD20C06E812F3131051CF06623A3
:10027000F9F023C08EE190E0821B930B29853A852B
:100280004B855C8504C056954795379527958A958B
:10029000D2F76623B1F050954095309521953F4FA8
:1002A0004F4F5F4F0EC020E030E040E050E009C00B
:1002B0002FEF3FEF4FEF5FE704C020E030E040E07A
:1002C00050E8B901CA012C96E2E00C946A09A8E052
:1002D000B0E0EDE6F1E00C9446097B018C0161157C
:1002E00071058105910519F482E0898360C083E07E
:1002F00089838EE1C82ED12CDC82CB82ED82FE82F6
:100300000F831887C801B7010E94E001FC013197F3
:10031000F7FF3BC0222733272E1B3F0B57016801F5
:10032000022E04C0D694C794B794A7940A94D2F727
:1003300040E050E060E070E081E090E0A0E0B0E0FC
:1003400004C0880F991FAA1FBB1F2A95D2F70197D7
:10035000A109B1098E219F21A023B1230097A105F6
:10036000B10521F041E050E060E070E04A295B29EE
:100370006C297D294D835E836F8378878EE190E0C1
:100380008E1B9F0B9C838B8312C0309781F00E2EA7
:1003900004C0EE0CFF1C001F111F0A94D2F7ED825F
:1003A000FE820F831887CE1ADF0ADC82CB821A8284
:1003B000CE0101960E942F022896EAE00C94620971
:1003C000EF92FF920F931F937B018C0180E0E81660
:1003D00080E0F80681E0080780E0180788F48FEFD6
:1003E000E816F1040105110531F028F088E090E0ED
:1003F000A0E0B0E017C080E090E0A0E0B0E012C064
:1004000080E0E81680E0F80680E0080781E0180741
:1004100028F088E190E0A0E0B0E004C080E190E046
:10042000A0E0B0E020E230E040E050E0281B390BD3
:100430004A0B5B0B04C016950795F794E7948A95D1
:10044000D2F7F701E15DFE4F8081281B3109410998
:100450005109C9011F910F91FF90EF900895DF920C
:10046000EF92FF920F931F93FC01E480F5800681C9
:100470001781D1808081823048F480E090E0A0E153
:10048000B0E0E82AF92A0A2B1B2BA5C0843009F416
:100490009FC0823021F4EE24FF24870105C0E114BF
:1004A000F1040105110519F4E0E0F0E096C0628165
:1004B00073819FEF623879070CF05BC022E83FEF51
:1004C000261B370B2A3131052CF020E030E040E0CC
:1004D00050E02AC0B801A701022E04C076956795A6
:1004E000579547950A94D2F781E090E0A0E0B0E0FC
:1004F00004C0880F991FAA1FBB1F2A95D2F7019726
:10050000A109B1098E219F21A023B1230097A10544
:10051000B10521F081E090E0A0E0B0E09A01AB01EC
:10052000282B392B4A2B5B2BDA01C9018F7790706E
:10053000A070B07080349105A105B10539F427FF92
:1005400009C0205C3F4F4F4F5F4F04C0215C3F4FBD
:100550004F4F5F4FE0E0F0E02030A0E03A07A0E02E
:100560004A07A0E45A0710F0E1E0F0E079018A01BF
:1005700027C06038710564F5FB01E158FF4FD801D1
:10058000C7018F779070A070B07080349105A1057D
:10059000B10539F4E7FE0DC080E490E0A0E0B0E0E2
:1005A00004C08FE390E0A0E0B0E0E80EF91E0A1F5F
:1005B0001B1F17FF05C016950795F794E794319612
:1005C00087E016950795F794E7948A95D1F705C0CB
:1005D000EE24FF248701EFEFF0E06E2F679566278A
:1005E0006795902F9F77D794DD24D7948E2F86958B
:1005F000492F462B582F5D29B701CA011F910F9132
:10060000FF90EF90DF900895FC01DB014081518164
:100610002281622F6F7770E0221F2227221F938191
:10062000892F880F822B282F30E0991F9927991F37
:1006300011969C93119721153105A9F54115510586
:100640006105710511F482E037C082E89FEF1396CF
:100650009C938E9312979A01AB0167E0220F331F90
:10066000441F551F6A95D1F783E08C930DC0220F6C
:10067000331F441F551F12968D919C91139701971C
:1006800013969C938E931297203080E0380780E079
:10069000480780E4580758F314962D933D934D93E3
:1006A0005C93179708952F3F310579F44115510553
:1006B0006105710519F484E08C93089564FF03C00B
:1006C00081E08C9312C01C9210C02F5730401396BB
:1006D0003C932E93129783E08C9387E0440F551F31
:1006E000661F771F8A95D1F7706414964D935D93BA
:1006F0006D937C9317970895889889980895882317
:1007000021F08898809BFECF0895889A909808954C
:10071000882311F089980895899A9198089581E025
:100720000E947F0382E08A95F1F781E00E948803AE
:1007300081E008951F9380E00E94880315E0812FD7
:100740008A95F1F780E00E947F031A95F1F781E026
:100750001F910895889A899A81E00E94880381E018
:100760000E947F030895809B03C0889A9098089503
:100770008898809BFECF0895DF92EF92FF920F93AF
:100780001F93CF93DF93D82E899800E0C7E0D0E085
:1007900081E0E82EF12C15E00E94B303819B08C094
:1007A000C7010C2E02C0880F991F0A94E2F7082B8C
:1007B000812F8A95F1F70E94B303812F8A95F1F773
:1007C00021978FEFCF3FD80739F7899A80E0DD2056
:1007D00009F481E00E9488030E94B30315E0812F91
:1007E0008A95F1F70E94B30381E00E9488031A956D
:1007F000F1F7802FDF91CF911F910F91FF90EF9034
:10080000DF9008959F92AF92BF92CF92DF92EF92C6
:10081000FF920F931F93CF93DF938C01962EA42EFC
:100820008998FF24C7E0D0E031E0C32ED12C25E029
:10083000B22E0E94B303819B08C0C6010C2E02C0D9
:10084000880F991F0A94E2F7F82A95E0E92E8B2D7C
:100850008A95F1F70E94B3038B2D8A95F1F72197C2
:100860008FEFCF3FD80729F72A2D30E0020F131F53
:10087000F801F082899A892D90E0019728173907AD
:1008800074F480E00E9488030E94B3038E2D8A9541
:10089000F1F70E94B30381E00E9488030AC081E05F
:1008A0000E9488030E94B3038E2D8A95F1F70E945F
:1008B000B3038E2D8A95F1F781E0DF91CF911F91DF
:1008C0000F91FF90EF90DF90CF90BF90AF909F90EF
:1008D0000895EF92FF920F931F93082F10E055E0B9
:1008E000F52E802F881F8827881F0E9488030E946A
:1008F000B30345E0E42E8F2D8A95F1F70E94B303F0
:10090000000F8F2D8A95F1F71F5F183051F78998E6
:100910000E94B303819B02C080E00AC08E2D8A959D
:10092000F1F70E94B303899A8E2D8A95F1F781E041
:100930001F910F91FF90EF900895806A0E946904C3
:100940000895FF920F931F93CF93DF93EC01F62E40
:100950000E949A038823E9F081E00E949D04882385
:10096000C1F010E000E009C0CE016F2D412F0E94C0
:100970000204082F882319F01F5F1F15A8F381E0D8
:100980000E947F0382E08A95F1F781E00E9488034C
:1009900001C000E0802FDF91CF911F910F91FF9058
:1009A0000895FF920F931F93CF93DF93182F092F72
:1009B000F62E0E949A038823F9F080E00E949D049D
:1009C0008823D1F0812F902F9C01E90100E010E0F5
:1009D00007C089910E946904082F882319F01F5FBE
:1009E0001F15B8F381E00E947F0382E08A95F1F73A
:1009F00081E00E94880301C000E0802FDF91CF9149
:100A00001F910F91FF900895662311F0A89A01C0DD
:100A1000A898A998A49AA59AA69AA79AAF98AE98CA
:100A2000AD98AC9887FDAF9A86FDAE9A85FDAD9ADC
:100A300084FDAC9AAA9A00C0AA98AF98AE98AD98D7
:100A4000AC9883FDAF9A82FDAE9A81FDAD9A80FD90
:100A5000AC9AAA9A00C0AA98AC9AAD9AAE9AAF9AEC
:100A60000895882311F0A89A01C0A898A99AA4987B
:100A7000A598A698A798AA9A00C09C9B02C080E15E
:100A800001C080E09D9980629E9980649F998068F2
:100A9000AA9800C0AA9A00C09C9981609D99826022
:100AA0009E9984609F998860AA98089580E00E942A
:100AB000310587FDFBCF84E090E00197F1F780E0FE
:100AC0000E94310508951F93182F0E945605812F0B
:100AD00060E00E9404051F9108951F93182F0E9443
:100AE0005605812F61E00E9404051F910895662339
:100AF00011F4805801C080540E94630508950E943B
:100B0000560590E0089581E00E946305089582E013
:100B10000E94630508951F93182F0E9456051A30EE
:100B200049F4803410F080E001C080E480580E94D5
:100B3000630504C0812F61E00E9404051F910895A0
:100B4000CF93DF93EC0102C00E948B05899188232B
:100B5000D9F7DF91CF910895CF93DF93EC0102C0D5
:100B60000E948B05FE01219684918823C9F7DF91AD
:100B7000CF9108951F93182FA09AA19AA29AA49A90
:100B8000A59AA69AA79A80E09DE70197F1F7AD9AFA
:100B9000AC9AAA9A00C0AA9880E097E20197F1F770
:100BA000AA9A00C0AA9880E890E0FC013197F1F77A
:100BB000AA9A00C0AA98FC013197F1F7AC98AA9ABA
:100BC00000C0AA980197F1F788E20E94630588E0C7
:100BD0000E9463050E94830586E00E946305812FC1
:100BE0000E9463051F910895909398008093990047
:100BF00088E980939A008EE080939D000895BC9AC6
:100C00008C9A949A1598169889B7806289BF89B78B
:100C1000806489BF8AB788608ABF8AB78B7F8ABFA2
:100C20008AB780628ABF8AB78F7E8ABF83B78A7F7E
:100C300083BF83B7826083BF83B7886483BF83B772
:100C4000806283BF83B78F7E83BF89E181BF85B513
:100C5000877B85BD85B58A7F85BD85B5826085BD6D
:100C60008BE984BD87B7806487BF8BB31BBA85B31C
:100C700015BA82B312BA83B113B880913B028E7F4A
:100C800080933B0280913B028D7F80933B02809159
:100C90003B028B7F80933B0280913B02877F809356
:100CA0003B0280913B028F7E80933B0280913B020E
:100CB0008F7D80933B0280913B028F7B80933B0230
:100CC00080913B028F7780933B020895A0E0B0E0D3
:100CD000BC01CD010E9467012AE939E949E95FE3D6
:100CE0000E9467000E941301CB0108951F920F928A
:100CF0000FB60F9211248F939F9380919C00809345
:100D00003202809132028234B9F0833420F481348B
:100D100009F053C006C08C34C1F0833509F04DC0D2
:100D200046C080913602882321F481E08093360208
:100D300044C01092360241C080919C0080933102E1
:100D400080919C008093300238C0809136028130BF
:100D5000A1F580913B0287FD14C083B7887F83BFD4
:100D600080913B02806880933B0280913B028860C7
:100D700080933B0280913B02806280933B02B49857
:100D80001CC083B78A7F83BF83B7826083BF809193
:100D90003B028F7780933B0280913B028860809377
:100DA0003B0280913B02806280933B0206C08091AF
:100DB00037029091380280939C009F918F910F9001
:100DC0000FBE0F901F9018958FE292E00E94750958
:100DD00090933A02809339028091390290913A02BD
:100DE00089509048880F991F81BF08951F920F92D4
:100DF0000FB60F920BB60F9211242F933F934F9380
:100E00005F936F937F938F939F93AF93BF93EF9372
:100E1000FF9380913602813029F58FE292E00E94A3
:100E2000750990933A02809339028091390290912A
:100E30003A028436910560F48091390290913A0229
:100E40000A9690933A028093390281B7875E81BFF8
:100E50008091390290913A026FE272E04AE050E0EC
:100E60000E949A09FF91EF91BF91AF919F918F914D
:100E70007F916F915F914F913F912F910F900BBE9A
:100E80000F900FBE0F901F9018951F920F920FB6E4
:100E90000F920BB60F9211242F933F934F935F93B2
:100EA0006F937F938F939F93AF93BF93EF93FF9332
:100EB00080913602813021F58FE292E00E9475091F
:100EC00090933A02809339028091390290913A02CC
:100ED0000B9760F08091390290913A020A979093B3
:100EE0003A028093390281B7895181BF80913902DA
:100EF00090913A026FE272E04AE050E00E949A0953
:100F0000FF91EF91BF91AF919F918F917F916F91E1
:100F10005F914F913F912F910F900BBE0F900FBE9D
:100F20000F901F90189584E690E090933A0280937A
:100F300039028091390290913A026FE272E04AE000
:100F400050E00E949A0908950F931F93DF93CF9367
:100F500000D000D000D0CDB7DEB70E94830580E07E
:100F600060E00E94770580E091E00E94A0058091FA
:100F70003602882311F08DE401C081E40E948B05C4
:100F800088E060E00E94770586E091E00E94A0057D
:100F900080913B0287FF03C08BE091E002C08FE0AD
:100FA00091E00E94A00580E061E00E94770582E167
:100FB00091E00E94A0058FE292E00E94A00588E0E7
:100FC00061E00E94770586E191E00E94A005809192
:100FD0003702909138020E9466068E010F5F1F4F04
:100FE000B8014AE050E00E949A09C8010E94A00599
:100FF00026960FB6F894DEBF0FBECDBFCF91DF911E
:101000001F910F9108950F931F93DF93CF9300D0FB
:1010100000D000D0CDB7DEB780913B0283FF5EC029
:1010200080913B0284FF17C080913B028E010F5FCD
:101030001F4F87FF04C0C8016BE071E003C0C80107
:101040006FE071E00E94930900939C0080913B0245
:101050008F7E80933B0280913B0285FF1FC0809171
:101060003B028E010F5F1F4F87FD0CC0C8016AE174
:1010700071E00E94930900939C008FE292E08093BC
:101080009C0007C0C8016EE171E00E9493090093C3
:101090009C0080913B028F7D80933B0280913B02BC
:1010A00086FF17C08E010F5F1F4FC80163E271E01A
:1010B0000E94930900939C0080913702909138021E
:1010C0000E94660680939C0080913B028F7B8093F8
:1010D0003B0280913B02877F80933B0280913B02E1
:1010E00081FF07C00E94A40780913B028D7F8093FF
:1010F0003B0226960FB6F894DEBF0FBECDBFCF9150
:10110000DF911F910F9108950E94A40708950E94F6
:101110009A0386E40E94690480E10E9469040E94A7
:101120008F0380EB94E028EC30E0F9013197F1F780
:101130000197D9F70895EF92FF920F931F930E94A2
:101140009A0387E40E94690481E00E94BC03F82EA0
:10115000EE2480E00E94BC03082F0E948F0310E061
:101160000E291F29C8011F910F91FF90EF9008953C
:101170001F920F920FB60F920BB60F9211242F935E
:101180003F934F935F936F937F938F939F93AF930F
:10119000BF93EF93FF9380913402909135020196B3
:1011A00090933502809334028091340290913502FD
:1011B000885E934029F480913B02826080933B02D9
:1011C0008091340290913502885B9B40F1F410923B
:1011D0003502109234020E949B089093380280934B
:1011E0003702809137029091380284E690E0909324
:1011F0003A02809339028091390290913A026FE26B
:1012000072E04AE050E00E949A098BE982BFFF91A8
:10121000EF91BF91AF919F918F917F916F915F916E
:101220004F913F912F910F900BBE0F900FBE0F90DB
:101230001F90189578940E94FF050E94AA030E94AF
:1012400087081092980083E38093990088E980933F
:101250009A008EE080939D008CE00E94BA050E9467
:1012600083050E94030880913602813019F40E94A0
:10127000E40602C00E94A407C49AF3CF2F923F92C3
:101280004F925F926F927F928F929F92AF92BF9296
:10129000CF92DF92EF92FF920F931F93CF93DF9342
:1012A000CDB7DEB7CA1BDB0B0FB6F894DEBF0FBE9F
:1012B000CDBF09942A88398848885F846E847D84EC
:1012C0008C849B84AA84B984C884DF80EE80FD80EE
:1012D0000C811B81AA81B981CE0FD11D0FB6F89464
:1012E000DEBF0FBECDBFED010895FC018827992711
:1012F000E89421912032E9F3293010F02E30C8F320
:101300002B3241F02D3239F4689404C00E94BB099D
:10131000820F911D219120532A30C0F31EF4909525
:1013200081959F4F0895FB01DC0101900D920020F3
:10133000E1F70895FB019F01E8944230C4F0453283
:10134000B4F44A3029F497FB1EF4909581959F4F91
:10135000642F77270E94D309805D8A330CF0895D62
:101360008193CB010097A1F716F45DE251931082AF
:10137000C9010C94C3097AE0979F902D879F802D17
:10138000910D11240895DC01FC01672F71917723E1
:10139000E1F7329704C07C916D9370836291AE1730
:1013A000BF07C8F30895AA1BBB1B51E107C0AA1FC2
:1013B000BB1FA617B70710F0A61BB70B881F991FF6
:1013C0005A95A9F780959095BC01CD010895F894A0
:0213D000FFCF4D
:1013D2004D4F44453A004C45443A004F4646004F73
:1013E2004E0042523A004C583A004F4E3A004F4695
:1013F200463A006C783A000000000000000000004D
:1014020001020203030303040404040404040405A4
:101412000505050505050505050505050505050679
:10142200060606060606060606060606060606065A
:101432000606060606060606060606060606060749
:10144200070707070707070707070707070707072A
:10145200070707070707070707070707070707071A
:10146200070707070707070707070707070707070A
:1014720007070707070707070707070707070708F9
:1014820008080808080808080808080808080808DA
:1014920008080808080808080808080808080808CA
:1014A20008080808080808080808080808080808BA
:1014B20008080808080808080808080808080808AA
:1014C200080808080808080808080808080808089A
:1014D200080808080808080808080808080808088A
:1014E200080808080808080808080808080808087A
:1014F2000808080808080808080808080808083042
:04150200313048003C
:00000001FF
